{
  "contractName": "ArtworksManager",
  "abi": [
    {
      "constant": false,
      "inputs": [
        {
          "name": "_idartwork",
          "type": "bytes32"
        },
        {
          "name": "_info",
          "type": "bytes32"
        },
        {
          "name": "_authors",
          "type": "address[]"
        },
        {
          "name": "_collaborators",
          "type": "address[]"
        }
      ],
      "name": "addArtwork",
      "outputs": [],
      "payable": false,
      "stateMutability": "nonpayable",
      "type": "function",
      "signature": "0xe214216c"
    },
    {
      "constant": true,
      "inputs": [
        {
          "name": "_id",
          "type": "bytes32"
        }
      ],
      "name": "findArtworkById",
      "outputs": [
        {
          "components": [
            {
              "name": "checksum",
              "type": "bytes32"
            },
            {
              "name": "info",
              "type": "bytes32"
            },
            {
              "name": "authors",
              "type": "address[]"
            },
            {
              "name": "collaborators",
              "type": "address[]"
            }
          ],
          "name": "",
          "type": "tuple"
        },
        {
          "name": "",
          "type": "bool"
        }
      ],
      "payable": false,
      "stateMutability": "view",
      "type": "function",
      "signature": "0x7ba09248"
    },
    {
      "constant": true,
      "inputs": [
        {
          "name": "_author",
          "type": "address"
        }
      ],
      "name": "findArtworkByAuthor",
      "outputs": [
        {
          "components": [
            {
              "name": "checksum",
              "type": "bytes32"
            },
            {
              "name": "info",
              "type": "bytes32"
            },
            {
              "name": "authors",
              "type": "address[]"
            },
            {
              "name": "collaborators",
              "type": "address[]"
            }
          ],
          "name": "",
          "type": "tuple"
        },
        {
          "name": "",
          "type": "bool"
        }
      ],
      "payable": false,
      "stateMutability": "view",
      "type": "function",
      "signature": "0x69bca1fb"
    },
    {
      "constant": true,
      "inputs": [
        {
          "name": "_collaborator",
          "type": "address"
        }
      ],
      "name": "findArtworkByCollaborator",
      "outputs": [
        {
          "components": [
            {
              "name": "checksum",
              "type": "bytes32"
            },
            {
              "name": "info",
              "type": "bytes32"
            },
            {
              "name": "authors",
              "type": "address[]"
            },
            {
              "name": "collaborators",
              "type": "address[]"
            }
          ],
          "name": "",
          "type": "tuple"
        },
        {
          "name": "",
          "type": "bool"
        }
      ],
      "payable": false,
      "stateMutability": "view",
      "type": "function",
      "signature": "0x9c536147"
    }
  ],
  "bytecode": "0x608060405234801561001057600080fd5b50610f8f806100206000396000f3fe608060405260043610610062576000357c0100000000000000000000000000000000000000000000000000000000900463ffffffff16806369bca1fb146100675780637ba09248146100a55780639c536147146100e3578063e214216c14610121575b600080fd5b34801561007357600080fd5b5061008e60048036036100899190810190610c70565b61014a565b60405161009c929190610e47565b60405180910390f35b3480156100b157600080fd5b506100cc60048036036100c79190810190610c99565b61037d565b6040516100da929190610e47565b60405180910390f35b3480156100ef57600080fd5b5061010a60048036036101059190810190610c70565b610553565b604051610118929190610e47565b60405180910390f35b34801561012d57600080fd5b5061014860048036036101439190810190610cc2565b610786565b005b610152610aad565b600061015c610aad565b600080905060008090505b60018054905081101561036f5761017c610aad565b60008060018481548110151561018e57fe5b906000526020600020015481526020019081526020016000206080604051908101604052908160008201548152602001600182015481526020016002820180548060200260200160405190810160405280929190818152602001828054801561024c57602002820191906000526020600020905b8160009054906101000a900473ffffffffffffffffffffffffffffffffffffffff1673ffffffffffffffffffffffffffffffffffffffff1681526020019060010190808311610202575b50505050508152602001600382018054806020026020016040519081016040528092919081815260200182805480156102da57602002820191906000526020600020905b8160009054906101000a900473ffffffffffffffffffffffffffffffffffffffff1673ffffffffffffffffffffffffffffffffffffffff1681526020019060010190808311610290575b505050505081525050905060008090505b816040015151811015610360578773ffffffffffffffffffffffffffffffffffffffff1682604001518281518110151561032157fe5b9060200190602002015173ffffffffffffffffffffffffffffffffffffffff1614156103535781945060019350610360565b80806001019150506102eb565b50508080600101915050610167565b508181935093505050915091565b610385610aad565b600061038f610aad565b600080905060008090505b600180549050811015610545576103da6103cc6001838154811015156103bc57fe5b906000526020600020015461084b565b6103d58861084b565b61087e565b15610538576000808781526020019081526020016000206080604051908101604052908160008201548152602001600182015481526020016002820180548060200260200160405190810160405280929190818152602001828054801561049657602002820191906000526020600020905b8160009054906101000a900473ffffffffffffffffffffffffffffffffffffffff1673ffffffffffffffffffffffffffffffffffffffff168152602001906001019080831161044c575b505050505081526020016003820180548060200260200160405190810160405280929190818152602001828054801561052457602002820191906000526020600020905b8160009054906101000a900473ffffffffffffffffffffffffffffffffffffffff1673ffffffffffffffffffffffffffffffffffffffff16815260200190600101908083116104da575b505050505081525050925060019150610545565b808060010191505061039a565b508181935093505050915091565b61055b610aad565b6000610565610aad565b600080905060008090505b60018054905081101561077857610585610aad565b60008060018481548110151561059757fe5b906000526020600020015481526020019081526020016000206080604051908101604052908160008201548152602001600182015481526020016002820180548060200260200160405190810160405280929190818152602001828054801561065557602002820191906000526020600020905b8160009054906101000a900473ffffffffffffffffffffffffffffffffffffffff1673ffffffffffffffffffffffffffffffffffffffff168152602001906001019080831161060b575b50505050508152602001600382018054806020026020016040519081016040528092919081815260200182805480156106e357602002820191906000526020600020905b8160009054906101000a900473ffffffffffffffffffffffffffffffffffffffff1673ffffffffffffffffffffffffffffffffffffffff1681526020019060010190808311610699575b505050505081525050905060008090505b816060015151811015610769578773ffffffffffffffffffffffffffffffffffffffff1682606001518281518110151561072a57fe5b9060200190602002015173ffffffffffffffffffffffffffffffffffffffff16141561075c5781945060019350610769565b80806001019150506106f4565b50508080600101915050610570565b508181935093505050915091565b61078e610aad565b848160000181815250508381602001818152505082816040018190525081816060018190525080600080878152602001908152602001600020600082015181600001556020820151816001015560408201518160020190805190602001906107f7929190610adc565b506060820151816003019080519060200190610814929190610adc565b5090505060018590806001815401808255809150509060018203906000526020600020016000909192909190915055505050505050565b610853610b66565b604051602081016040528281528060208301525061087082610894565b816000018181525050919050565b60008061088b84846109bd565b14905092915050565b60008060006001028314156108ad5760009150506109b8565b60006fffffffffffffffffffffffffffffffff84600190041614156108f95760108101905070010000000000000000000000000000000083600190048115156108f257fe5b0460010292505b600067ffffffffffffffff84600190041614156109355760088101905068010000000000000000836001900481151561092e57fe5b0460010292505b600063ffffffff846001900416141561096957600481019050640100000000836001900481151561096257fe5b0460010292505b600061ffff84600190041614156109995760028101905062010000836001900481151561099257fe5b0460010292505b600060ff84600190041614156109b0576001810190505b806020039150505b919050565b600080836000015190508360000151836000015110156109df57826000015190505b60008460200151905060008460200151905060008090505b83811015610a955760008084519150835190508082141515610a7c5760007fffffffffffffffffffffffffffffffffffffffffffffffffffffffffffffffff90506020871015610a5457600184886020030160080260020a031990505b6000818316828516039050600081141515610a79578098505050505050505050610aa7565b50505b60208501945060208401935050506020810190506109f7565b50846000015186600001510393505050505b92915050565b608060405190810160405280600080191681526020016000801916815260200160608152602001606081525090565b828054828255906000526020600020908101928215610b55579160200282015b82811115610b545782518260006101000a81548173ffffffffffffffffffffffffffffffffffffffff021916908373ffffffffffffffffffffffffffffffffffffffff16021790555091602001919060010190610afc565b5b509050610b629190610b80565b5090565b604080519081016040528060008152602001600081525090565b610bc091905b80821115610bbc57600081816101000a81549073ffffffffffffffffffffffffffffffffffffffff021916905550600101610b86565b5090565b90565b6000610bcf8235610f39565b905092915050565b600082601f8301121515610bea57600080fd5b8135610bfd610bf882610ea4565b610e77565b91508181835260208401935060208101905083856020840282011115610c2257600080fd5b60005b83811015610c525781610c388882610bc3565b845260208401935060208301925050600181019050610c25565b5050505092915050565b6000610c688235610f4b565b905092915050565b600060208284031215610c8257600080fd5b6000610c9084828501610bc3565b91505092915050565b600060208284031215610cab57600080fd5b6000610cb984828501610c5c565b91505092915050565b60008060008060808587031215610cd857600080fd5b6000610ce687828801610c5c565b9450506020610cf787828801610c5c565b935050604085013567ffffffffffffffff811115610d1457600080fd5b610d2087828801610bd7565b925050606085013567ffffffffffffffff811115610d3d57600080fd5b610d4987828801610bd7565b91505092959194509250565b610d5e81610ef1565b82525050565b6000610d6f82610ed9565b808452602084019350610d8183610ecc565b60005b82811015610db357610d97868351610d55565b610da082610ee4565b9150602086019550600181019050610d84565b50849250505092915050565b610dc881610f03565b82525050565b610dd781610f0f565b82525050565b6000608083016000830151610df56000860182610dce565b506020830151610e086020860182610dce565b5060408301518482036040860152610e208282610d64565b91505060608301518482036060860152610e3a8282610d64565b9150508091505092915050565b60006040820190508181036000830152610e618185610ddd565b9050610e706020830184610dbf565b9392505050565b6000604051905081810181811067ffffffffffffffff82111715610e9a57600080fd5b8060405250919050565b600067ffffffffffffffff821115610ebb57600080fd5b602082029050602081019050919050565b6000602082019050919050565b600081519050919050565b6000602082019050919050565b6000610efc82610f19565b9050919050565b60008115159050919050565b6000819050919050565b600073ffffffffffffffffffffffffffffffffffffffff82169050919050565b6000610f4482610f19565b9050919050565b600081905091905056fea265627a7a723058206231f99c6fb9605082a1235774d5da72b9c34a11b55d440ff5fc9a88bcef79406c6578706572696d656e74616cf50037",
  "source": "pragma solidity ^0.5.0;\npragma experimental ABIEncoderV2;\n\nimport \"./lib/arachnid/solidity-stringutils/strings.sol\";\n\ncontract ArtworksManager {\n  struct Artwork  {\n    bytes32 checksum;\n    bytes32 info;\n    address[] authors;\n    address[] collaborators;\n  }\n\n  // Map de n° artwork => Artwork\n  mapping(bytes32 => Artwork) artworks;\n  bytes32[] artworkArray;\n\n  function addArtwork(bytes32 _idartwork, bytes32 _info, address[] memory _authors, address[] memory _collaborators) public {\n    Artwork memory artwork;\n    artwork.checksum = _idartwork;\n    artwork.info = _info;\n    artwork.authors = _authors;\n    artwork.collaborators = _collaborators;\n    artworks[_idartwork] = artwork;\n    artworkArray.push(_idartwork);\n  }\n\n  function findArtworkById(bytes32 _id) public view returns(Artwork memory, bool) {\n    Artwork memory response;\n    bool found = false;\n    for ( uint i = 0 ; i < artworkArray.length ; i++ ) {\n      if (strings.equals(strings.toSliceB32(artworkArray[i]), strings.toSliceB32(_id))) {\n        response = artworks[_id];\n        found = true;\n        break;\n      }\n    }\n    return (response, found);\n  }\n\n\n  function findArtworkByAuthor(address _author) public view returns(Artwork memory, bool) {\n    Artwork memory response;\n    bool found = false;\n    for ( uint i = 0; i < artworkArray.length ; i++ ) {\n      Artwork memory artwork = artworks[artworkArray[i]];\n      for ( uint j = 0; j < artwork.authors.length;  j++){\n        if (artwork.authors[j] == _author){\n          response = artwork;\n          found = true;\n          break;\n        }\n      }\n    }\n    return (response, found);\n  }\n\n  function findArtworkByCollaborator(address _collaborator) public view returns(Artwork memory, bool) {\n    Artwork memory response;\n    bool found = false;\n    for ( uint i = 0; i < artworkArray.length ; i++ ) {\n      Artwork memory artwork = artworks[artworkArray[i]];\n      for ( uint j = 0; j < artwork.collaborators.length;  j++){\n        if (artwork.collaborators[j] == _collaborator){\n          response = artwork;\n          found = true;\n          break;\n        }\n      }\n    }\n    return (response, found);\n  }\n}\n",
  "sourcePath": "/Users/bettrave/Blockchain/Artwork-Manager/contracts/ArtworksManager.sol",
  "compiler": {
    "name": "solc",
    "version": "0.5.0+commit.1d4f565a.Emscripten.clang"
  },
  "schemaVersion": "3.0.2",
  "updatedAt": "2019-02-23T13:25:32.449Z",
  "devdoc": {
    "methods": {}
  },
  "userdoc": {
    "methods": {}
  }
}